{
  "_format": "hh-sol-artifact-1",
  "contractName": "Payable",
  "sourceName": "contracts/Payable.sol",
  "abi": [
    {
      "inputs": [],
      "stateMutability": "payable",
      "type": "constructor"
    },
    {
      "anonymous": false,
      "inputs": [
        {
          "indexed": false,
          "internalType": "uint256",
          "name": "amount",
          "type": "uint256"
        }
      ],
      "name": "Deposit",
      "type": "event"
    },
    {
      "anonymous": false,
      "inputs": [
        {
          "indexed": false,
          "internalType": "address",
          "name": "addr",
          "type": "address"
        },
        {
          "indexed": false,
          "internalType": "uint256",
          "name": "amount",
          "type": "uint256"
        }
      ],
      "name": "Transfer",
      "type": "event"
    },
    {
      "inputs": [],
      "name": "getBalance",
      "outputs": [
        {
          "internalType": "uint256",
          "name": "",
          "type": "uint256"
        }
      ],
      "stateMutability": "view",
      "type": "function"
    },
    {
      "inputs": [],
      "name": "owner",
      "outputs": [
        {
          "internalType": "address payable",
          "name": "",
          "type": "address"
        }
      ],
      "stateMutability": "view",
      "type": "function"
    },
    {
      "inputs": [
        {
          "internalType": "address payable",
          "name": "_to",
          "type": "address"
        },
        {
          "internalType": "uint256",
          "name": "_amount",
          "type": "uint256"
        }
      ],
      "name": "transfer",
      "outputs": [],
      "stateMutability": "nonpayable",
      "type": "function"
    },
    {
      "stateMutability": "payable",
      "type": "receive"
    }
  ],
  "bytecode": "0x6080604052600080546001600160a01b03191633179055610287806100256000396000f3fe6080604052600436106100385760003560e01c806312065fe0146100775780638da5cb5b1461009e578063a9059cbb146100cf57610072565b36610072576040805134815290517f4d6ce1e535dbade1c23defba91e23b8f791ce5edc0cc320257a2b364e4e384269181900360200190a1005b600080fd5b34801561008357600080fd5b5061008c61010a565b60408051918252519081900360200190f35b3480156100aa57600080fd5b506100b361010e565b604080516001600160a01b039092168252519081900360200190f35b3480156100db57600080fd5b50610108600480360360408110156100f257600080fd5b506001600160a01b03813516906020013561011d565b005b4790565b6000546001600160a01b031681565b6000546001600160a01b03163314610168576040805162461bcd60e51b81526020600482015260096024820152683737ba1037bbb732b960b91b604482015290519081900360640190fd5b60405181906000906001600160a01b0385169083908381818185875af1925050503d80600081146101b5576040519150601f19603f3d011682016040523d82523d6000602084013e6101ba565b606091505b5050905080610207576040805162461bcd60e51b81526020600482015260146024820152732330b4b632b2103a379039b2b7321022ba3432b960611b604482015290519081900360640190fd5b604080516001600160a01b03861681526020810184905281517f69ca02dd4edd7bf0a4abb9ed3b7af3f14778db5d61921c7dc7cd545266326de2929181900390910190a15050505056fea2646970667358221220a1534c1286cf6bd475a95e82a7302f72e5aa08e11cdb62801a21c5b37f5b1c2b64736f6c63430007030033",
  "linkReferences": {},
  "deployedLinkReferences": {}
}